:020000040000FA
:0400000099EF39F04B
:107298000F000500016E01C083FF120094929494C0
:1072A800030ECA12CA840C0EBD120C0EBA121200BA
:1072B80001500302F3CF05F0F4CF06F001500402A9
:1072C800F350062602500302F350062605C001F0CB
:1072D80006C002F01200076E848207504EEC39F0A7
:1072E8008494000E026E030E016E54EC3BF08492FF
:1072F800000E026E030E016E54EC3BF08482120005
:10730800076E848207504EEC39F08484000E026EBA
:10731800030E016E54EC3BF08492000E026E030ED5
:10732800016E54EC3BF084821200980EF66E720ED9
:10733800F76E000EF86E00EE23F010EE04F0090070
:10734800F5CFEEFFE550E150FAE1000EF86E0001CE
:107358007DEF3DF0D00E6FEC39F0FF0E086E7E0E1B
:10736800096E18EC3AF081B6BCEF39F0BEEF39F08F
:10737800B7EF39F0DE0E6FEC39F0F70E086E7F0EBE
:10738800096E18EC3AF0000E086E010E076EF6EC66
:107398003BF01200010E6FEC39F0800E6FEC39F003
:1073A800F00E086E7E0E096E18EC3AF0010E826E31
:1073B8000DC001F00EC002F0000E046E030E036E45
:1073C8005CEC39F001C00FF002C010F00FC007F0FC
:1073D80010C008F0F6EC3BF0000E826E1200010EB1
:1073E8006FEC39F0800E6FEC39F0E10E086E7E0E0E
:1073F800096E18EC3AF0010E846E0DC001F00EC053
:1074080002F0000E046E030E036E5CEC39F001C04E
:107418000FF002C010F00FC007F010C008F0F6EC33
:107428003BF0000E846E1200000E0C6E2BEF3AF04B
:107438000C5008240A6E000E09200B6E0AC0F6FFD5
:107448000BC0F7FF0800F55084EC39F00C2A0C50FB
:1074580008240A6E000E09200B6E0AC0F6FF0BC046
:10746800F7FF0800F5500009D8A43DEF3AF03FEFC8
:107478003AF01CEF3AF0120084928494000E026EE7
:10748800140E016E54EC3BF08482380E6FEC39F028
:10749800000E026E050E016E54EC3BF0380E6FECD8
:1074A80039F0000E026E010E016E54EC3BF0380EFE
:1074B8006FEC39F0080E6FEC39F00F0E6FEC39F005
:1074C800010E6FEC39F0380E6FEC39F0800E6FEC6E
:1074D80039F01200010E6FEC39F0800E6FEC39F0C4
:1074E8000D0E086E7F0E096E18EC3AF0C00E6FECA8
:1074F80039F0530E086E7F0E096E18EC3AF0900EB4
:107508006FEC39F0B00E086E7F0E096E18EC3AF089
:10751800D00E6FEC39F0840E086E7F0E096E18ECF1
:107528003AF032EC3CF00EC011F00FC012F012002D
:10753800010E6FEC39F0800E6FEC39F0B30E086E67
:107548007E0E096E18EC3AF0C00E6FEC39F0D50ECD
:10755800086E7F0E096E18EC3AF0900E6FEC39F059
:10756800CC0E086E7F0E096E18EC3AF0D00E6FEC58
:1075780039F0C30E086E7F0E096E18EC3AF032EC43
:107588003CF00EC011F00FC012F01200010E6FECAB
:1075980039F0800E6FEC39F0D20E086E7E0E096E4F
:1075A80018EC3AF0C00E6FEC39F0DE0E086E7F0E64
:1075B800096E18EC3AF0900E6FEC39F0CC0E086EAC
:1075C8007F0E096E18EC3AF0D00E6FEC39F0EF0E22
:1075D800086E7F0E096E18EC3AF032EC3CF00EC0E3
:1075E80011F00FC012F01200010E6FEC39F0800E8E
:1075F8006FEC39F0C30E086E7E0E096E18EC3AF087
:10760800C00E6FEC39F06C0E086E7F0E096E18EC28
:107618003AF0900E6FEC39F0780E086E7F0E096E16
:1076280018EC3AF0D00E6FEC39F0A60E086E7F0E0B
:10763800096E18EC3AF032EC3CF00EC011F00FC0B5
:1076480012F01200010E6FEC39F0800E6FEC39F079
:10765800A30E086E7E0E096E18EC3AF0C00E6FECA1
:1076680039F0290E086E7F0E096E18EC3AF0900E6C
:107678006FEC39F0E70E086E7F0E096E18EC3AF0E1
:10768800D00E6FEC39F0370E086E7F0E096E18ECCD
:107698003AF032EC3CF00EC011F00FC012F01200BC
:1076A800000E046E000E036E7AEF3BF0000E056EBE
:1076B800280E056462EF3BF064EF3BF066EF3BF0A9
:1076C80078EF3BF0000E066E020E06646EEF3BF09C
:1076D80070EF3BF072EF3BF075EF3BF0062A68EF76
:1076E8003BF0052A5CEF3BF0034A042A0150035C97
:1076F80002500458D8A083EF3BF085EF3BF05AEFD7
:107708003BF012000A6E010ECB24016E026A000ED5
:1077180002220AC003F0046A5CEC39F001C00BF0E5
:1077280002C00CF00BC001F00CC002F0000E046E99
:10773800190E036EBCEC3BF001C00BF002C00CF05C
:10774800FF0E0B16030E0C160BC008F00CC009F048
:10775800D89009320832D890093208320850BE6EE3
:107768000BC008F0030E08160838F00BBD12120003
:10777800000E066E000E056E03500410D8B4C7EF55
:107788003BF0C9EF3BF0F1EF3BF0010E076ED1EF94
:107798003BF0D89003360436072A04AED6EF3BF008
:1077A800D8EF3BF0CDEF3BF0D890053606360350C6
:1077B800015C04500258D8A0E4EF3BF0E6EF3BF040
:1077C800EBEF3BF00350015E0450025A0580D8905D
:1077D80004320332072ED8EF3BF005C001F006C093
:1077E80002F01200000E0A6E000E096E1CEF3CF04B
:1077F800000E0B6E280E0B6404EF3CF006EF3CF015
:1078080008EF3CF01AEF3CF0000E0C6E020E0C6410
:1078180010EF3CF012EF3CF014EF3CF017EF3CF0A7
:107828000C2A0AEF3CF00B2AFEEF3BF0094A0A2A21
:1078380007C001F008C002F0030E046EE80E036EE4
:107848005CEC39F00150095C02500A58D8A02FEFBF
:107858003CF031EF3CF0FCEF3BF012000F0E956E60
:10786800000E086E000E076E98EC3CF0300F106E9C
:10787800000E956E8F0E6FEC39F0310E1018D8B4DB
:1078880048EF3CF04AEF3CF064EF3CF0320E101841
:10789800D8B451EF3CF053EF3CF064EF3CF0330EBA
:1078A8001018D8B45AEF3CF05CEF3CF064EF3CF0B1
:1078B800FC0E086E7F0E096E18EC3AF067EF3CF08C
:1078C800105084EC39F0000E086E010E076EF6ECCD
:1078D8003BF08F0E6FEC39F0FA0E086E7F0E096ED2
:1078E80018EC3AF0310E1018D8B47DEF3CF07FEF69
:1078F8003CF091EF3CF0320E1018D8B486EF3CF013
:1079080088EF3CF091EF3CF0330E1018D8A48FEFBD
:107918003CF091EF3CF032EF3CF0D00E10240E6EAC
:107928000F6AFF0E0F221200000E0A6E000E096E7B
:10793800000E0C6E81CF0BF049EF3DF0000E0D6E7E
:107948007D0E0D24F66EF76A7E0EF7220800F550BC
:10795800FF0A811283B6B3EF3CF0B5EF3CF0CDEFF0
:107968003CF0000E026E0F0E016E54EC3BF083B635
:10797800C0EF3CF0C2EF3CF0CDEF3CF083A6C7EF80
:107988003CF0C9EF3CF0C2EF3CF00D280C6E3FEF25
:107998003DF083B4D2EF3CF0D4EF3CF0EDEF3CF097
:1079A800000E026E0F0E016E54EC3BF083B4DFEF55
:1079B8003CF0E1EF3CF0EDEF3CF083A4E6EF3CF067
:1079C800E8EF3CF0E1EF3CF00D50040F0C6E3FEF98
:1079D8003DF083B2F2EF3CF0F4EF3CF00DEF3DF0F8
:1079E800000E026E0F0E016E54EC3BF083B2FFEFF7
:1079F8003CF001EF3DF00DEF3DF083A206EF3DF0C6
:107A080008EF3DF001EF3DF00D50070F0C6E3FEF12
:107A18003DF083B012EF3DF014EF3DF02DEF3DF057
:107A2800000E026E0F0E016E54EC3BF083B01FEF98
:107A38003DF021EF3DF02DEF3DF083A026EF3DF026
:107A480028EF3DF021EF3DF00D500A0F0C6E3FEF8F
:107A58003DF07D0E0D24F66EF76A7E0EF7220800C3
:107A6800F55081160D2A020E0D643DEF3DF03FEFF3
:107A78003DF0A4EF3CF0000E026E050E016E54ECD2
:107A88003BF0050E0926000E0A220750095C085033
:107A98000A58D8A052EF3DF054EF3DF05DEF3DF0AD
:107AA80007500810D8A45BEF3DF05DEF3DF065EF9F
:107AB8003DF00C50D8B463EF3DF065EF3DF0A2EF18
:107AC8003CF00C50D8A46BEF3DF06DEF3DF06EEF3D
:107AD8003DF00C680B0E0C18D8A475EF3DF077EF4D
:107AE8003DF079EF3DF0000E0C6E0BC081FF0C509D
:107AF8001200060EC16EF80E936E000E946E000E04
:107B0800956E000E966E40EC3AF052EC39F0010E8C
:107B18006FEC39F0800E6FEC39F0810E086E7E0E36
:107B2800096E18EC3AF0000E086E030E076EF6ECBC
:107B38003BF0D00E6FEC39F0AEEC39F0CAEC3AF00D
:107B480011C021F012C022F0F8EC3AF011C01BF07D
:107B580012C01CF026EC3BF011C01DF012C01EF044
:107B68006EEC3AF011C019F012C01AF019041A108C
:107B7800D8B4C1EF3DF0C3EF3DF0C9EF3DF09CEC48
:107B88003AF011C015F012C016F0010E6FEC39F082
:107B9800800E6FEC39F0920E086E7E0E096E18ECAE
:107BA8003AF0AEEC39F021C00DF022C00EF0CEEC68
:107BB80039F0030E19181A10D8A4E5EF3DF0E7EFD5
:107BC8003DF059EF3EF0010E6FEC39F0800E6FEC8E
:107BD80039F0600E086E7F0E096E18EC3AF021C07D
:107BE80001F022C002F0000E046E050E036E5CEC7C
:107BF80039F001C013F002C014F01BC001F01CC022
:107C080002F0000E046E050E036E5CEC39F00150B4
:107C18001326025014221DC001F01EC002F0000EEF
:107C2800046E050E036E5CEC39F001501326025009
:107C38001422360E1324176E000E1420186E17C067
:107C480001F018C002F0000E046E030E036E5CEC27
:107C580039F0D89002320132D89002320132015004
:107C680086EC3BF01DC001F01EC002F0000E046E51
:107C7800030E036E5CEC39F001C01FF002C020F067
:107C88001FC007F020C008F0F6EC3BF0000E86ECB1
:107C98003BF021C00DF022C00EF0F3EC39F021C00A
:107CA8000DF022C00EF0CEEC39F019041A10D8B439
:107CB80060EF3EF062EF3EF082EF3EF0010E6FECB7
:107CC80039F0800E6FEC39F0BA0E086E7F0E096E2F
:107CD80018EC3AF015C001F016C002F0000E046E60
:107CE800050E036E5CEC39F001C01FF002C020F0F5
:107CF8001FC007F020C008F0F6EC3BF0010E6FEC57
:107D080039F0800E6FEC39F0640E086E7F0E096E44
:107D180018EC3AF01B50050DF3CF13F02150050D68
:107D2800F3CF14F01D50050DF35014241324360F0F
:107D380086EC3BF01DC001F01EC002F0000E046E80
:107D4800050E036E5CEC39F001C01FF002C020F094
:107D58001FC007F020C008F0F6EC3BF0000E86ECE0
:107D68003BF021C00DF022C00EF0F3EC39F021C039
:107D78000DF022C00EF0CEEC39F0010E6FEC39F0A8
:107D8800800E6FEC39F09B0E086E7F0E096E18ECB2
:107D98003AF01B50080DF3CF13F02150080DF350A3
:107DA8001324330F86EC3BF021C001F022C002F00F
:107DB800000E046E050E036E5CEC39F001C01FF076
:107DC80002C020F01FC007F020C008F0F6EC3BF01E
:107DD800000E86EC3BF021C00DF022C00EF0F3EC53
:107DE80039F0010E6FEC39F0800E6FEC39F01B0E94
:107DF800086E7F0E096E18EC3AF01B50060DF3CF93
:107E080013F02150060DF35013243F0F86EC3BF07E
:107E180021C001F022C002F0000E046E050E036EB0
:107E28005CEC39F001C01FF002C020F01FC007F061
:107E380020C008F0F6EC3BF0000E86EC3BF0010E9B
:107E48006FEC39F0800E6FEC39F0450E086E7F0E3E
:107E5800096E18EC3AF0C00E6FEC39F0900E086E0F
:107E68007F0E096E18EC3AF0AEEC39F07DEF3DF07C
:107E780000EF00F00001020400496E696369616C5B
:107E8800697A616E646F2E2E2E00496E696369618E
:107E980072206C61766167656D3F00536974756126
:107EA80063616F20726F7570613A0054656D706F11
:107EB800206465206D6F6C686F3A005469706F209C
:107EC800646520726F7570613A004E6976656C2042
:107ED800646520616775613A005245544952414EC4
:107EE800444F204147554100494E4A4554414E446C
:107EF8004F2041475541005072657373696F6E6535
:107F080020524233005469706F206C617661676556
:107F18006D3A0043454E545249465547414E444FE9
:107F280000283129506F75636F2073756A610028C6
:107F380033294D7569746F2073756A610041206C2F
:107F480061766167656D20666F6900283129456330
:107F58006F6E6F6D696361005052452D4C415641FB
:107F68004E444F0028312944656C6963616461009F
:107F7800283229436F6C6F72696461002833294382
:107F88006F6D706C65746100636F6E636C756964A6
:107F9800612100454E58414755414E444F00283312
:107FA800294272616E6361002832294E6F726D61D9
:107FB8006C00454D204D4F4C484F002833294C6FDD
:107FC8006E676F002832294D6564696F0028312972
:107FD800437572746F00283129426169786F0028EF
:107FE800322953756A6100283329416C746F004F38
:077FF8006B0020005800009F
:020000040020DA
:08000000FFFFFFFFFFFFFFFF00
:020000040030CA
:0E000000FF021F00FF8381FF0FC00FE00F40C3
:00000001FF
